{
  "_format": "hh-sol-artifact-1",
  "contractName": "PoetPortal",
  "sourceName": "contracts/PoetPortal.sol",
  "abi": [
    {
      "inputs": [],
      "stateMutability": "payable",
      "type": "constructor"
    },
    {
      "anonymous": false,
      "inputs": [
        {
          "indexed": true,
          "internalType": "address",
          "name": "from",
          "type": "address"
        },
        {
          "indexed": false,
          "internalType": "uint256",
          "name": "timestamp",
          "type": "uint256"
        },
        {
          "indexed": false,
          "internalType": "string",
          "name": "poetry",
          "type": "string"
        }
      ],
      "name": "NewPoem",
      "type": "event"
    },
    {
      "inputs": [],
      "name": "getAllPoems",
      "outputs": [
        {
          "components": [
            {
              "internalType": "address",
              "name": "poet",
              "type": "address"
            },
            {
              "internalType": "string",
              "name": "poetry",
              "type": "string"
            },
            {
              "internalType": "uint256",
              "name": "timestamp",
              "type": "uint256"
            }
          ],
          "internalType": "struct PoetPortal.Poem[]",
          "name": "",
          "type": "tuple[]"
        }
      ],
      "stateMutability": "view",
      "type": "function"
    },
    {
      "inputs": [],
      "name": "getTotalPoems",
      "outputs": [
        {
          "internalType": "uint256",
          "name": "",
          "type": "uint256"
        }
      ],
      "stateMutability": "view",
      "type": "function"
    },
    {
      "inputs": [
        {
          "internalType": "address",
          "name": "",
          "type": "address"
        }
      ],
      "name": "lastPoemSent",
      "outputs": [
        {
          "internalType": "uint256",
          "name": "",
          "type": "uint256"
        }
      ],
      "stateMutability": "view",
      "type": "function"
    },
    {
      "inputs": [
        {
          "internalType": "string",
          "name": "_poetry",
          "type": "string"
        }
      ],
      "name": "poem",
      "outputs": [],
      "stateMutability": "nonpayable",
      "type": "function"
    }
  ],
  "bytecode": "0x60806040526200004f6040518060400160405280601481526020017f6772656574696e67732c2065617274686c696e670000000000000000000000008152506200005560201b6200068a1760201c565b620001e9565b620000f5816040516024016200006c919062000162565b6040516020818303038152906040527f41304fac000000000000000000000000000000000000000000000000000000007bffffffffffffffffffffffffffffffffffffffffffffffffffffffff19166020820180517bffffffffffffffffffffffffffffffffffffffffffffffffffffffff8381831617835250505050620000f860201b60201c565b50565b60008151905060006a636f6e736f6c652e6c6f679050602083016000808483855afa5050505050565b60006200012e8262000186565b6200013a818562000191565b93506200014c818560208601620001a2565b6200015781620001d8565b840191505092915050565b600060208201905081810360008301526200017e818462000121565b905092915050565b600081519050919050565b600082825260208201905092915050565b60005b83811015620001c2578082015181840152602081019050620001a5565b83811115620001d2576000848401525b50505050565b6000601f19601f8301169050919050565b6111be80620001f96000396000f3fe608060405234801561001057600080fd5b506004361061004c5760003560e01c80632d361ef2146100515780634d5c41a01461006f578063770495111461008b5780638dda7b87146100bb575b600080fd5b6100596100d9565b6040516100669190610c36565b60405180910390f35b610089600480360381019061008491906109cd565b61022a565b005b6100a560048036038101906100a091906109a4565b610627565b6040516100b29190610d3a565b60405180910390f35b6100c361063f565b6040516100d09190610d3a565b60405180910390f35b60606002805480602002602001604051908101604052809291908181526020016000905b8282101561022157838290600052602060002090600302016040518060600160405290816000820160009054906101000a900473ffffffffffffffffffffffffffffffffffffffff1673ffffffffffffffffffffffffffffffffffffffff1673ffffffffffffffffffffffffffffffffffffffff16815260200160018201805461018690610f20565b80601f01602080910402602001604051908101604052809291908181526020018280546101b290610f20565b80156101ff5780601f106101d4576101008083540402835291602001916101ff565b820191906000526020600020905b8154815290600101906020018083116101e257829003601f168201915b50505050508152602001600282015481525050815260200190600101906100fd565b50505050905090565b42601e600360003373ffffffffffffffffffffffffffffffffffffffff1673ffffffffffffffffffffffffffffffffffffffff168152602001908152602001600020546102779190610e4c565b106102b7576040517f08c379a00000000000000000000000000000000000000000000000000000000081526004016102ae90610d1a565b60405180910390fd5b42600360003373ffffffffffffffffffffffffffffffffffffffff1673ffffffffffffffffffffffffffffffffffffffff16815260200190815260200160002081905550600160008082825461030d9190610e4c565b925050819055506103536040518060400160405280600c81526020017f25732077757a20686572652e000000000000000000000000000000000000000081525033610723565b600260405180606001604052803373ffffffffffffffffffffffffffffffffffffffff16815260200183815260200142815250908060018154018082558091505060019003906000526020600020906003020160009091909190915060008201518160000160006101000a81548173ffffffffffffffffffffffffffffffffffffffff021916908373ffffffffffffffffffffffffffffffffffffffff1602179055506020820151816001019080519060200190610412929190610884565b506040820151816002015550506000606460015442446104329190610e4c565b61043c9190610e4c565b6104469190610f83565b90506104876040518060400160405280601681526020017f52616e646f6d20232067656e6572617465643a20257300000000000000000000815250826107bf565b8060018190555060328110156105d3576104d66040518060400160405280600781526020017f257320776f6e210000000000000000000000000000000000000000000000000081525033610723565b60006509184e72a000905047811115610524576040517f08c379a000000000000000000000000000000000000000000000000000000000815260040161051b90610cda565b60405180910390fd5b60003373ffffffffffffffffffffffffffffffffffffffff168260405161054a90610c21565b60006040518083038185875af1925050503d8060008114610587576040519150601f19603f3d011682016040523d82523d6000602084013e61058c565b606091505b50509050806105d0576040517f08c379a00000000000000000000000000000000000000000000000000000000081526004016105c790610cfa565b60405180910390fd5b50505b3373ffffffffffffffffffffffffffffffffffffffff167f9c18a831a4d08ec7d5adc24094adfb2ddc1a2c68e9aaaf2d913c02bc2d3ea705428460405161061b929190610d55565b60405180910390a25050565b60036020528060005260406000206000915090505481565b60006106826040518060400160405280601381526020017f256420706f657473207765726520686572652e000000000000000000000000008152506000546107bf565b600054905090565b6107208160405160240161069e9190610c58565b6040516020818303038152906040527f41304fac000000000000000000000000000000000000000000000000000000007bffffffffffffffffffffffffffffffffffffffffffffffffffffffff19166020820180517bffffffffffffffffffffffffffffffffffffffffffffffffffffffff838183161783525050505061085b565b50565b6107bb8282604051602401610739929190610c7a565b6040516020818303038152906040527f319af333000000000000000000000000000000000000000000000000000000007bffffffffffffffffffffffffffffffffffffffffffffffffffffffff19166020820180517bffffffffffffffffffffffffffffffffffffffffffffffffffffffff838183161783525050505061085b565b5050565b61085782826040516024016107d5929190610caa565b6040516020818303038152906040527f9710a9d0000000000000000000000000000000000000000000000000000000007bffffffffffffffffffffffffffffffffffffffffffffffffffffffff19166020820180517bffffffffffffffffffffffffffffffffffffffffffffffffffffffff838183161783525050505061085b565b5050565b60008151905060006a636f6e736f6c652e6c6f679050602083016000808483855afa5050505050565b82805461089090610f20565b90600052602060002090601f0160209004810192826108b257600085556108f9565b82601f106108cb57805160ff19168380011785556108f9565b828001600101855582156108f9579182015b828111156108f85782518255916020019190600101906108dd565b5b509050610906919061090a565b5090565b5b8082111561092357600081600090555060010161090b565b5090565b600061093a61093584610daa565b610d85565b90508281526020810184848401111561095257600080fd5b61095d848285610ede565b509392505050565b60008135905061097481611171565b92915050565b600082601f83011261098b57600080fd5b813561099b848260208601610927565b91505092915050565b6000602082840312156109b657600080fd5b60006109c484828501610965565b91505092915050565b6000602082840312156109df57600080fd5b600082013567ffffffffffffffff8111156109f957600080fd5b610a058482850161097a565b91505092915050565b6000610a1a8383610bb3565b905092915050565b610a2b81610ea2565b82525050565b610a3a81610ea2565b82525050565b6000610a4b82610deb565b610a558185610e0e565b935083602082028501610a6785610ddb565b8060005b85811015610aa35784840389528151610a848582610a0e565b9450610a8f83610e01565b925060208a01995050600181019050610a6b565b50829750879550505050505092915050565b6000610ac082610df6565b610aca8185610e2a565b9350610ada818560208601610eed565b610ae381611070565b840191505092915050565b6000610af982610df6565b610b038185610e3b565b9350610b13818560208601610eed565b610b1c81611070565b840191505092915050565b6000610b34603483610e3b565b9150610b3f82611081565b604082019050919050565b6000610b57602783610e3b565b9150610b62826110d0565b604082019050919050565b6000610b7a600083610e1f565b9150610b858261111f565b600082019050919050565b6000610b9d602c83610e3b565b9150610ba882611122565b604082019050919050565b6000606083016000830151610bcb6000860182610a22565b5060208301518482036020860152610be38282610ab5565b9150506040830151610bf86040860182610c03565b508091505092915050565b610c0c81610ed4565b82525050565b610c1b81610ed4565b82525050565b6000610c2c82610b6d565b9150819050919050565b60006020820190508181036000830152610c508184610a40565b905092915050565b60006020820190508181036000830152610c728184610aee565b905092915050565b60006040820190508181036000830152610c948185610aee565b9050610ca36020830184610a31565b9392505050565b60006040820190508181036000830152610cc48185610aee565b9050610cd36020830184610c12565b9392505050565b60006020820190508181036000830152610cf381610b27565b9050919050565b60006020820190508181036000830152610d1381610b4a565b9050919050565b60006020820190508181036000830152610d3381610b90565b9050919050565b6000602082019050610d4f6000830184610c12565b92915050565b6000604082019050610d6a6000830185610c12565b8181036020830152610d7c8184610aee565b90509392505050565b6000610d8f610da0565b9050610d9b8282610f52565b919050565b6000604051905090565b600067ffffffffffffffff821115610dc557610dc4611041565b5b610dce82611070565b9050602081019050919050565b6000819050602082019050919050565b600081519050919050565b600081519050919050565b6000602082019050919050565b600082825260208201905092915050565b600081905092915050565b600082825260208201905092915050565b600082825260208201905092915050565b6000610e5782610ed4565b9150610e6283610ed4565b9250827fffffffffffffffffffffffffffffffffffffffffffffffffffffffffffffffff03821115610e9757610e96610fb4565b5b828201905092915050565b6000610ead82610eb4565b9050919050565b600073ffffffffffffffffffffffffffffffffffffffff82169050919050565b6000819050919050565b82818337600083830152505050565b60005b83811015610f0b578082015181840152602081019050610ef0565b83811115610f1a576000848401525b50505050565b60006002820490506001821680610f3857607f821691505b60208210811415610f4c57610f4b611012565b5b50919050565b610f5b82611070565b810181811067ffffffffffffffff82111715610f7a57610f79611041565b5b80604052505050565b6000610f8e82610ed4565b9150610f9983610ed4565b925082610fa957610fa8610fe3565b5b828206905092915050565b7f4e487b7100000000000000000000000000000000000000000000000000000000600052601160045260246000fd5b7f4e487b7100000000000000000000000000000000000000000000000000000000600052601260045260246000fd5b7f4e487b7100000000000000000000000000000000000000000000000000000000600052602260045260246000fd5b7f4e487b7100000000000000000000000000000000000000000000000000000000600052604160045260246000fd5b6000601f19601f8301169050919050565b7f547279696e6720746f207769746864726177206d6f7265206d6f6e657920746860008201527f616e2074686520636f6e7472616374206861732e000000000000000000000000602082015250565b7f4661696c656420746f207769746864726177206d6f6e65792066726f6d20636f60008201527f6e74726163742e00000000000000000000000000000000000000000000000000602082015250565b50565b7f506c732077616974203330207365636f6e6473206265666f7265207375626d6960008201527f7474696e6720616761696e2e0000000000000000000000000000000000000000602082015250565b61117a81610ea2565b811461118557600080fd5b5056fea2646970667358221220b91178e6005c7700dda022c9239c607e0bad6504c3d7ef8c6686e631370fe53564736f6c63430008040033",
  "linkReferences": {},
  "deployedLinkReferences": {}
}